{
  "contractName": "Authentification",
  "abi": [
    {
      "constant": true,
      "inputs": [],
      "name": "name",
      "outputs": [
        {
          "name": "",
          "type": "string"
        }
      ],
      "payable": false,
      "stateMutability": "view",
      "type": "function"
    },
    {
      "constant": true,
      "inputs": [],
      "name": "diplomeCount",
      "outputs": [
        {
          "name": "",
          "type": "uint256"
        }
      ],
      "payable": false,
      "stateMutability": "view",
      "type": "function"
    },
    {
      "constant": true,
      "inputs": [
        {
          "name": "",
          "type": "uint256"
        }
      ],
      "name": "diplomes",
      "outputs": [
        {
          "name": "id",
          "type": "uint256"
        },
        {
          "name": "etud_nom",
          "type": "string"
        },
        {
          "name": "etud_prenom",
          "type": "string"
        },
        {
          "name": "matricule",
          "type": "uint256"
        },
        {
          "name": "specialite",
          "type": "string"
        },
        {
          "name": "niveau",
          "type": "string"
        },
        {
          "name": "owner",
          "type": "address"
        },
        {
          "name": "valide",
          "type": "bool"
        },
        {
          "name": "hash_diplome",
          "type": "bytes32"
        }
      ],
      "payable": false,
      "stateMutability": "view",
      "type": "function"
    },
    {
      "inputs": [],
      "payable": false,
      "stateMutability": "nonpayable",
      "type": "constructor"
    },
    {
      "anonymous": false,
      "inputs": [
        {
          "indexed": false,
          "name": "id",
          "type": "uint256"
        },
        {
          "indexed": false,
          "name": "etud_nom",
          "type": "string"
        },
        {
          "indexed": false,
          "name": "etud_prenom",
          "type": "string"
        },
        {
          "indexed": false,
          "name": "matricule",
          "type": "uint256"
        },
        {
          "indexed": false,
          "name": "specialite",
          "type": "string"
        },
        {
          "indexed": false,
          "name": "niveau",
          "type": "string"
        },
        {
          "indexed": false,
          "name": "owner",
          "type": "address"
        },
        {
          "indexed": false,
          "name": "valide",
          "type": "bool"
        },
        {
          "indexed": false,
          "name": "hash_diplome",
          "type": "bytes32"
        }
      ],
      "name": "DiplomeCreated",
      "type": "event"
    },
    {
      "anonymous": false,
      "inputs": [
        {
          "indexed": false,
          "name": "id",
          "type": "uint256"
        },
        {
          "indexed": false,
          "name": "etud_nom",
          "type": "string"
        },
        {
          "indexed": false,
          "name": "etud_prenom",
          "type": "string"
        },
        {
          "indexed": false,
          "name": "matricule",
          "type": "uint256"
        },
        {
          "indexed": false,
          "name": "specialite",
          "type": "string"
        },
        {
          "indexed": false,
          "name": "niveau",
          "type": "string"
        },
        {
          "indexed": false,
          "name": "owner",
          "type": "address"
        },
        {
          "indexed": false,
          "name": "valide",
          "type": "bool"
        },
        {
          "indexed": false,
          "name": "hash_diplome",
          "type": "bytes32"
        }
      ],
      "name": "DiplomeValide",
      "type": "event"
    },
    {
      "constant": true,
      "inputs": [
        {
          "name": "_id",
          "type": "uint256"
        },
        {
          "name": "etud_nom",
          "type": "string"
        }
      ],
      "name": "hash",
      "outputs": [
        {
          "name": "",
          "type": "bytes32"
        }
      ],
      "payable": false,
      "stateMutability": "pure",
      "type": "function"
    },
    {
      "constant": false,
      "inputs": [
        {
          "name": "_etud_nom",
          "type": "string"
        },
        {
          "name": "_etud_prenom",
          "type": "string"
        },
        {
          "name": "_matricule",
          "type": "uint256"
        },
        {
          "name": "_specialite",
          "type": "string"
        },
        {
          "name": "_niveau",
          "type": "string"
        }
      ],
      "name": "createDiplome",
      "outputs": [],
      "payable": false,
      "stateMutability": "nonpayable",
      "type": "function"
    },
    {
      "constant": true,
      "inputs": [
        {
          "name": "_hash",
          "type": "bytes32"
        }
      ],
      "name": "searchHash",
      "outputs": [
        {
          "name": "",
          "type": "uint256"
        }
      ],
      "payable": false,
      "stateMutability": "view",
      "type": "function"
    },
    {
      "constant": true,
      "inputs": [
        {
          "name": "id",
          "type": "uint256"
        }
      ],
      "name": "getHash",
      "outputs": [
        {
          "name": "",
          "type": "bytes32"
        }
      ],
      "payable": false,
      "stateMutability": "view",
      "type": "function"
    },
    {
      "constant": false,
      "inputs": [
        {
          "name": "_id",
          "type": "uint256"
        }
      ],
      "name": "validerDiplome",
      "outputs": [],
      "payable": false,
      "stateMutability": "nonpayable",
      "type": "function"
    },
    {
      "constant": true,
      "inputs": [
        {
          "name": "_id",
          "type": "uint256"
        }
      ],
      "name": "searchDiplome",
      "outputs": [
        {
          "name": "",
          "type": "bool"
        }
      ],
      "payable": false,
      "stateMutability": "view",
      "type": "function"
    }
  ],
  "bytecode": "0x608060405260006001553480156200001657600080fd5b506040805190810160405280601981526020017f41757468656e74696669636174696f6e204469706c6f6d65730000000000000081525060009080519060200190620000649291906200006b565b506200011a565b828054600181600116156101000203166002900490600052602060002090601f016020900481019282601f10620000ae57805160ff1916838001178555620000df565b82800160010185558215620000df579182015b82811115620000de578251825591602001919060010190620000c1565b5b509050620000ee9190620000f2565b5090565b6200011791905b8082111562000113576000816000905550600101620000f9565b5090565b90565b611de0806200012a6000396000f3fe608060405260043610610099576000357c0100000000000000000000000000000000000000000000000000000000900463ffffffff16806306fdde031461009e5780631597fc921461012e5780631ce3b82a1461017d578063266650e3146102635780632e7dc3eb1461028e5780636b2fafa9146102c9578063768ceb9a14610318578063b6eb207714610563578063ddc5a173146107fa575b600080fd5b3480156100aa57600080fd5b506100b361084d565b6040518080602001828103825283818151815260200191508051906020019080838360005b838110156100f35780820151818401526020810190506100d8565b50505050905090810190601f1680156101205780820380516001836020036101000a031916815260200191505b509250505060405180910390f35b34801561013a57600080fd5b506101676004803603602081101561015157600080fd5b81019080803590602001909291905050506108eb565b6040518082815260200191505060405180910390f35b34801561018957600080fd5b5061024d600480360360408110156101a057600080fd5b8101908080359060200190929190803590602001906401000000008111156101c757600080fd5b8201836020820111156101d957600080fd5b803590602001918460018302840111640100000000831117156101fb57600080fd5b91908080601f016020809104026020016040519081016040528093929190818152602001838380828437600081840152601f19601f820116905080830192505050505050509192919290505050610934565b6040518082815260200191505060405180910390f35b34801561026f57600080fd5b506102786109ba565b6040518082815260200191505060405180910390f35b34801561029a57600080fd5b506102c7600480360360208110156102b157600080fd5b81019080803590602001909291905050506109c0565b005b3480156102d557600080fd5b50610302600480360360208110156102ec57600080fd5b8101908080359060200190929190505050611131565b6040518082815260200191505060405180910390f35b34801561032457600080fd5b506103516004803603602081101561033b57600080fd5b8101908080359060200190929190505050611151565b604051808a8152602001806020018060200189815260200180602001806020018873ffffffffffffffffffffffffffffffffffffffff1673ffffffffffffffffffffffffffffffffffffffff1681526020018715151515815260200186815260200185810385528d818151815260200191508051906020019080838360005b838110156103eb5780820151818401526020810190506103d0565b50505050905090810190601f1680156104185780820380516001836020036101000a031916815260200191505b5085810384528c818151815260200191508051906020019080838360005b83811015610451578082015181840152602081019050610436565b50505050905090810190601f16801561047e5780820380516001836020036101000a031916815260200191505b5085810383528a818151815260200191508051906020019080838360005b838110156104b757808201518184015260208101905061049c565b50505050905090810190601f1680156104e45780820380516001836020036101000a031916815260200191505b50858103825289818151815260200191508051906020019080838360005b8381101561051d578082015181840152602081019050610502565b50505050905090810190601f16801561054a5780820380516001836020036101000a031916815260200191505b509d505050505050505050505050505060405180910390f35b34801561056f57600080fd5b506107f8600480360360a081101561058657600080fd5b81019080803590602001906401000000008111156105a357600080fd5b8201836020820111156105b557600080fd5b803590602001918460018302840111640100000000831117156105d757600080fd5b91908080601f016020809104026020016040519081016040528093929190818152602001838380828437600081840152601f19601f8201169050808301925050505050505091929192908035906020019064010000000081111561063a57600080fd5b82018360208201111561064c57600080fd5b8035906020019184600183028401116401000000008311171561066e57600080fd5b91908080601f016020809104026020016040519081016040528093929190818152602001838380828437600081840152601f19601f82011690508083019250505050505050919291929080359060200190929190803590602001906401000000008111156106db57600080fd5b8201836020820111156106ed57600080fd5b8035906020019184600183028401116401000000008311171561070f57600080fd5b91908080601f016020809104026020016040519081016040528093929190818152602001838380828437600081840152601f19601f8201169050808301925050505050505091929192908035906020019064010000000081111561077257600080fd5b82018360208201111561078457600080fd5b803590602001918460018302840111640100000000831117156107a657600080fd5b91908080601f016020809104026020016040519081016040528093929190818152602001838380828437600081840152601f19601f82011690508083019250505050505050919291929050505061142c565b005b34801561080657600080fd5b506108336004803603602081101561081d57600080fd5b8101908080359060200190929190505050611851565b604051808215151515815260200191505060405180910390f35b60008054600181600116156101000203166002900480601f0160208091040260200160405190810160405280929190818152602001828054600181600116156101000203166002900480156108e35780601f106108b8576101008083540402835291602001916108e3565b820191906000526020600020905b8154815290600101906020018083116108c657829003601f168201915b505050505081565b6000806000905060015481101561092d578260026000838152602001908152602001600020600701541415610923578091505061092f565b600091505061092f565b505b919050565b600082826040516020018083815260200182805190602001908083835b6020831015156109765780518252602082019150602081019050602083039250610951565b6001836020036101000a0380198251168184511680821785525050505050509050019250505060405160208183030381529060405280519060200120905092915050565b60015481565b6109c8611ca7565b60026000838152602001908152602001600020610120604051908101604052908160008201548152602001600182018054600181600116156101000203166002900480601f016020809104026020016040519081016040528092919081815260200182805460018160011615610100020316600290048015610a8b5780601f10610a6057610100808354040283529160200191610a8b565b820191906000526020600020905b815481529060010190602001808311610a6e57829003601f168201915b50505050508152602001600282018054600181600116156101000203166002900480601f016020809104026020016040519081016040528092919081815260200182805460018160011615610100020316600290048015610b2d5780601f10610b0257610100808354040283529160200191610b2d565b820191906000526020600020905b815481529060010190602001808311610b1057829003601f168201915b5050505050815260200160038201548152602001600482018054600181600116156101000203166002900480601f016020809104026020016040519081016040528092919081815260200182805460018160011615610100020316600290048015610bd95780601f10610bae57610100808354040283529160200191610bd9565b820191906000526020600020905b815481529060010190602001808311610bbc57829003601f168201915b50505050508152602001600582018054600181600116156101000203166002900480601f016020809104026020016040519081016040528092919081815260200182805460018160011615610100020316600290048015610c7b5780601f10610c5057610100808354040283529160200191610c7b565b820191906000526020600020905b815481529060010190602001808311610c5e57829003601f168201915b505050505081526020016006820160009054906101000a900473ffffffffffffffffffffffffffffffffffffffff1673ffffffffffffffffffffffffffffffffffffffff1673ffffffffffffffffffffffffffffffffffffffff1681526020016006820160149054906101000a900460ff16151515158152602001600782015481525050905060008160c00151905060008260000151118015610d245750600154826000015111155b1515610d2f57600080fd5b8160e00151151515610d4057600080fd5b3373ffffffffffffffffffffffffffffffffffffffff168173ffffffffffffffffffffffffffffffffffffffff1614151515610d7b57600080fd5b338260c0019073ffffffffffffffffffffffffffffffffffffffff16908173ffffffffffffffffffffffffffffffffffffffff168152505060018260e00190151590811515815250508160026000858152602001908152602001600020600082015181600001556020820151816001019080519060200190610dfe929190611d0f565b506040820151816002019080519060200190610e1b929190611d0f565b50606082015181600301556080820151816004019080519060200190610e42929190611d0f565b5060a0820151816005019080519060200190610e5f929190611d0f565b5060c08201518160060160006101000a81548173ffffffffffffffffffffffffffffffffffffffff021916908373ffffffffffffffffffffffffffffffffffffffff16021790555060e08201518160060160146101000a81548160ff02191690831515021790555061010082015181600701559050507facef5005c5182db6bc4fec86e70906347b37de492a7cde438374df20b722175a60015483602001518460400151856060015186608001518760a001513360018a6101000151604051808a8152602001806020018060200189815260200180602001806020018873ffffffffffffffffffffffffffffffffffffffff1673ffffffffffffffffffffffffffffffffffffffff1681526020018715151515815260200186815260200185810385528d818151815260200191508051906020019080838360005b83811015610fb5578082015181840152602081019050610f9a565b50505050905090810190601f168015610fe25780820380516001836020036101000a031916815260200191505b5085810384528c818151815260200191508051906020019080838360005b8381101561101b578082015181840152602081019050611000565b50505050905090810190601f1680156110485780820380516001836020036101000a031916815260200191505b5085810383528a818151815260200191508051906020019080838360005b83811015611081578082015181840152602081019050611066565b50505050905090810190601f1680156110ae5780820380516001836020036101000a031916815260200191505b50858103825289818151815260200191508051906020019080838360005b838110156110e75780820151818401526020810190506110cc565b50505050905090810190601f1680156111145780820380516001836020036101000a031916815260200191505b509d505050505050505050505050505060405180910390a1505050565b600060026000838152602001908152602001600020600701549050919050565b6002602052806000526040600020600091509050806000015490806001018054600181600116156101000203166002900480601f0160208091040260200160405190810160405280929190818152602001828054600181600116156101000203166002900480156112035780601f106111d857610100808354040283529160200191611203565b820191906000526020600020905b8154815290600101906020018083116111e657829003601f168201915b505050505090806002018054600181600116156101000203166002900480601f0160208091040260200160405190810160405280929190818152602001828054600181600116156101000203166002900480156112a15780601f10611276576101008083540402835291602001916112a1565b820191906000526020600020905b81548152906001019060200180831161128457829003601f168201915b505050505090806003015490806004018054600181600116156101000203166002900480601f0160208091040260200160405190810160405280929190818152602001828054600181600116156101000203166002900480156113455780601f1061131a57610100808354040283529160200191611345565b820191906000526020600020905b81548152906001019060200180831161132857829003601f168201915b505050505090806005018054600181600116156101000203166002900480601f0160208091040260200160405190810160405280929190818152602001828054600181600116156101000203166002900480156113e35780601f106113b8576101008083540402835291602001916113e3565b820191906000526020600020905b8154815290600101906020018083116113c657829003601f168201915b5050505050908060060160009054906101000a900473ffffffffffffffffffffffffffffffffffffffff16908060060160149054906101000a900460ff16908060070154905089565b6000855111151561143c57600080fd5b6000845111151561144c57600080fd5b60008311151561145b57600080fd5b6000825111151561146b57600080fd5b6000815111151561147b57600080fd5b600160008154809291906001019190505550600061149b60015487610934565b90506101206040519081016040528060015481526020018781526020018681526020018581526020018481526020018381526020013373ffffffffffffffffffffffffffffffffffffffff16815260200160001515815260200182815250600260006001548152602001908152602001600020600082015181600001556020820151816001019080519060200190611534929190611d0f565b506040820151816002019080519060200190611551929190611d0f565b50606082015181600301556080820151816004019080519060200190611578929190611d0f565b5060a0820151816005019080519060200190611595929190611d0f565b5060c08201518160060160006101000a81548173ffffffffffffffffffffffffffffffffffffffff021916908373ffffffffffffffffffffffffffffffffffffffff16021790555060e08201518160060160146101000a81548160ff02191690831515021790555061010082015181600701559050507f9175db86c9a0683593585b8a74bbe7c173d32ca841eef0ed809e0f1f170b57f8600154878787878733600089604051808a8152602001806020018060200189815260200180602001806020018873ffffffffffffffffffffffffffffffffffffffff1673ffffffffffffffffffffffffffffffffffffffff1681526020018715151515815260200186815260200185810385528d818151815260200191508051906020019080838360005b838110156116d25780820151818401526020810190506116b7565b50505050905090810190601f1680156116ff5780820380516001836020036101000a031916815260200191505b5085810384528c818151815260200191508051906020019080838360005b8381101561173857808201518184015260208101905061171d565b50505050905090810190601f1680156117655780820380516001836020036101000a031916815260200191505b5085810383528a818151815260200191508051906020019080838360005b8381101561179e578082015181840152602081019050611783565b50505050905090810190601f1680156117cb5780820380516001836020036101000a031916815260200191505b50858103825289818151815260200191508051906020019080838360005b838110156118045780820151818401526020810190506117e9565b50505050905090810190601f1680156118315780820380516001836020036101000a031916815260200191505b509d505050505050505050505050505060405180910390a1505050505050565b600061185b611ca7565b60026000848152602001908152602001600020610120604051908101604052908160008201548152602001600182018054600181600116156101000203166002900480601f01602080910402602001604051908101604052809291908181526020018280546001816001161561010002031660029004801561191e5780601f106118f35761010080835404028352916020019161191e565b820191906000526020600020905b81548152906001019060200180831161190157829003601f168201915b50505050508152602001600282018054600181600116156101000203166002900480601f0160208091040260200160405190810160405280929190818152602001828054600181600116156101000203166002900480156119c05780601f10611995576101008083540402835291602001916119c0565b820191906000526020600020905b8154815290600101906020018083116119a357829003601f168201915b5050505050815260200160038201548152602001600482018054600181600116156101000203166002900480601f016020809104026020016040519081016040528092919081815260200182805460018160011615610100020316600290048015611a6c5780601f10611a4157610100808354040283529160200191611a6c565b820191906000526020600020905b815481529060010190602001808311611a4f57829003601f168201915b50505050508152602001600582018054600181600116156101000203166002900480601f016020809104026020016040519081016040528092919081815260200182805460018160011615610100020316600290048015611b0e5780601f10611ae357610100808354040283529160200191611b0e565b820191906000526020600020905b815481529060010190602001808311611af157829003601f168201915b505050505081526020016006820160009054906101000a900473ffffffffffffffffffffffffffffffffffffffff1673ffffffffffffffffffffffffffffffffffffffff1673ffffffffffffffffffffffffffffffffffffffff1681526020016006820160149054906101000a900460ff16151515158152602001600782015481525050905060008160c00151905060008260000151118015611bb75750600154826000015111155b1515611bc257600080fd5b8160e001511515611bd257600080fd5b6000826020015151111515611be657600080fd5b6000826040015151111515611bfa57600080fd5b60008260600151111515611c0d57600080fd5b8160c001518260c0019073ffffffffffffffffffffffffffffffffffffffff16908173ffffffffffffffffffffffffffffffffffffffff16815250506000826080015151111515611c5d57600080fd5b60008260a0015151111515611c7157600080fd5b60008260000151118015611c8b5750600154826000015111155b15611c9b57600192505050611ca2565b6000925050505b919050565b61012060405190810160405280600081526020016060815260200160608152602001600081526020016060815260200160608152602001600073ffffffffffffffffffffffffffffffffffffffff168152602001600015158152602001600080191681525090565b828054600181600116156101000203166002900490600052602060002090601f016020900481019282601f10611d5057805160ff1916838001178555611d7e565b82800160010185558215611d7e579182015b82811115611d7d578251825591602001919060010190611d62565b5b509050611d8b9190611d8f565b5090565b611db191905b80821115611dad576000816000905550600101611d95565b5090565b9056fea165627a7a7230582023dedff5b59a41c1b2b0a6a3704f935bd022355b33037e2629a162637827f8260029",
  "source": "pragma solidity ^0.5.0;\r\n\r\ncontract Authentification {\r\n    string public name;\r\n    uint public diplomeCount = 0;\r\n    mapping(uint => Diplome) public diplomes;\r\n\r\n\r\n    struct Diplome {\r\n        uint id;\r\n        string etud_nom;\r\n        string etud_prenom;\r\n        uint matricule;\r\n        string specialite;\r\n        string niveau;\r\n        //uint price;\r\n        address owner;\r\n        //address payable owner;\r\n        bool valide;\r\n        bytes32 hash_diplome;\r\n    }\r\n\r\n    event DiplomeCreated(\r\n        uint id,\r\n        string etud_nom,\r\n        string etud_prenom,\r\n        uint matricule,\r\n        string specialite,\r\n        string niveau,\r\n        //uint price,\r\n        address owner,\r\n        bool valide,\r\n        bytes32 hash_diplome\r\n    );\r\n    event DiplomeValide(\r\n\t    uint id,\r\n        string etud_nom,\r\n        string etud_prenom,\r\n        uint matricule,\r\n        string specialite,\r\n        string niveau,\r\n        //uint price,\r\n        address owner,\r\n        bool valide,\r\n        bytes32 hash_diplome\r\n\t);\r\n    constructor() public {\r\n        name = \"Authentification Diplomes\";\r\n    }\r\n    function hash(uint _id, string memory etud_nom)\r\n        public pure returns(bytes32)\r\n    {\r\n        return keccak256(abi.encodePacked(_id, etud_nom));\r\n    }\r\n    function createDiplome(string memory _etud_nom,string memory _etud_prenom, uint _matricule,string memory _specialite,string memory _niveau) public {\r\n        // Require a valid name\r\n        require(bytes(_etud_nom).length > 0);\r\n        // Require a valid firstname\r\n        require(bytes(_etud_prenom).length > 0);\r\n        // Require a valid matricule\r\n        require(_matricule > 0);\r\n        // Require a valid specialty\r\n        require(bytes(_specialite).length > 0);\r\n        // Require a valid niveau\r\n        require(bytes(_niveau).length > 0);\r\n        // Increment product count\r\n        diplomeCount ++;\r\n        bytes32 _hash_diplome = hash(diplomeCount,_etud_nom);\r\n        // Create the product\r\n        diplomes[diplomeCount] = Diplome(diplomeCount, _etud_nom,_etud_prenom, _matricule,_specialite,_niveau, msg.sender, false,_hash_diplome);\r\n\r\n        // Trigger an event\r\n        emit DiplomeCreated(diplomeCount, _etud_nom,_etud_prenom, _matricule,_specialite,_niveau, msg.sender, false, _hash_diplome);\r\n    }\r\n    function searchHash(bytes32 _hash) public view returns(uint){\r\n        for (uint i=0; i< diplomeCount; i++ ){\r\n            if(diplomes[i].hash_diplome == _hash ){\r\n                return i;\r\n            }\r\n            else{\r\n                return 0;\r\n            }\r\n        }\r\n    }\r\n    function getHash(uint id) public view returns(bytes32){\r\n        return diplomes[id].hash_diplome;\r\n    }\r\n    function validerDiplome(uint _id) public  {\r\n\t    // Fetch the diploma\r\n\t    Diplome memory _diplome = diplomes[_id];\r\n\t    // Fetch the owner\r\n\t    address _seller = _diplome.owner;\r\n\t    // Make sure the product has a valid id\r\n\t    require(_diplome.id > 0 && _diplome.id <= diplomeCount);\r\n\t    // Require that the diplome has not been validated already\r\n        require(!_diplome.valide);\r\n\t    // Require that the buyer is not the seller\r\n\t    require(_seller != msg.sender);\r\n\t    // Transfer ownership to the buyer\r\n\t    _diplome.owner = msg.sender;\r\n\t    // Mark as valid\r\n\t    _diplome.valide = true;\r\n        //console.log(\"hellloooo\",_diplome.valide.toString());\r\n\t    // Update the diplome\r\n\t    diplomes[_id] = _diplome;\r\n\t    \r\n\t    // Trigger an event\r\n\t    emit DiplomeValide(diplomeCount, _diplome.etud_nom,_diplome.etud_prenom, _diplome.matricule,_diplome.specialite,_diplome.niveau, msg.sender, true, _diplome.hash_diplome);\r\n\t}\r\n    function searchDiplome(uint _id) public view returns (bool) {\r\n        // Fetch the diploma\r\n        Diplome memory _diplome = diplomes[_id];\r\n        // Fetch the owner\r\n        address _seller = _diplome.owner;\r\n        // Make sure the product has a valid id\r\n        require(_diplome.id > 0 && _diplome.id <= diplomeCount);\r\n        // Require that the diplome has  been validated already\r\n        require(_diplome.valide);\r\n       // Require a valid name\r\n        require(bytes(_diplome.etud_nom).length > 0);\r\n        // Require a valid firstname\r\n        require(bytes(_diplome.etud_prenom).length > 0);\r\n        // Require a valid matricule\r\n        require(_diplome.matricule > 0);\r\n         // Transfer ownership to the buyer\r\n        _diplome.owner = _diplome.owner;\r\n        // Require a valid specialty\r\n        require(bytes(_diplome.specialite).length > 0);\r\n        // Require a valid niveau\r\n        require(bytes(_diplome.niveau).length > 0);\r\n        if (_diplome.id > 0 && _diplome.id <= diplomeCount) { return true;}\r\n        else{return false;}\r\n    }\r\n    \r\n}",
  "sourcePath": "C:/Users/hb/diplomes/src/contracts/Authentification.sol",
  "compiler": {
    "name": "solc",
    "version": "0.5.0+commit.1d4f565a.Emscripten.clang"
  },
  "schemaVersion": "3.0.2",
  "updatedAt": "2022-05-06T19:12:16.219Z",
  "devdoc": {
    "methods": {}
  },
  "userdoc": {
    "methods": {}
  }
}